:100000000C9434000C943E000C943E000C943E0082
:100010000C943E000C943E000C943E000C943E0068
:100020000C943E000C943E000C943E000C943E0058
:100030000C943E000C943E000C943E000C943E0048
:100040000C943E000C943E000C943E000C943E0038
:100050000C943E000C943E000C943E000C943E0028
:100060000C943E000C943E0011241FBECFEFD8E04C
:10007000DEBFCDBF0E9440000C9472000C940000C3
:100080008FEF8AB984B1897F84B985B1866085B9DB
:1000900081E090E0199911C02FEF34E34CE021503A
:1000A00030404040E1F700C000008038910518F46E
:1000B000880F991F02C081E090E01A9911C02FEFBC
:1000C00034E34CE0215030404040E1F700C00000F4
:1000D0008230910518F09695879502C080E890E0EF
:0800E0008BB9D8CFF894FFCFD3
:00000001FF
